{
  "_format": "hh-sol-artifact-1",
  "contractName": "NFTOx",
  "sourceName": "contracts/NFTOx.sol",
  "abi": [
    {
      "inputs": [],
      "stateMutability": "nonpayable",
      "type": "constructor"
    },
    {
      "anonymous": false,
      "inputs": [
        {
          "indexed": true,
          "internalType": "address",
          "name": "owner",
          "type": "address"
        },
        {
          "indexed": true,
          "internalType": "address",
          "name": "approved",
          "type": "address"
        },
        {
          "indexed": true,
          "internalType": "uint256",
          "name": "tokenId",
          "type": "uint256"
        }
      ],
      "name": "Approval",
      "type": "event"
    },
    {
      "anonymous": false,
      "inputs": [
        {
          "indexed": true,
          "internalType": "address",
          "name": "owner",
          "type": "address"
        },
        {
          "indexed": true,
          "internalType": "address",
          "name": "operator",
          "type": "address"
        },
        {
          "indexed": false,
          "internalType": "bool",
          "name": "approved",
          "type": "bool"
        }
      ],
      "name": "ApprovalForAll",
      "type": "event"
    },
    {
      "anonymous": false,
      "inputs": [
        {
          "indexed": false,
          "internalType": "address",
          "name": "sender",
          "type": "address"
        },
        {
          "indexed": false,
          "internalType": "uint256",
          "name": "tokenId",
          "type": "uint256"
        },
        {
          "indexed": false,
          "internalType": "uint256",
          "name": "characterIndex",
          "type": "uint256"
        }
      ],
      "name": "CharacterNFTMinted",
      "type": "event"
    },
    {
      "anonymous": false,
      "inputs": [
        {
          "indexed": true,
          "internalType": "address",
          "name": "from",
          "type": "address"
        },
        {
          "indexed": true,
          "internalType": "address",
          "name": "to",
          "type": "address"
        },
        {
          "indexed": true,
          "internalType": "uint256",
          "name": "tokenId",
          "type": "uint256"
        }
      ],
      "name": "Transfer",
      "type": "event"
    },
    {
      "inputs": [
        {
          "internalType": "address",
          "name": "to",
          "type": "address"
        },
        {
          "internalType": "uint256",
          "name": "tokenId",
          "type": "uint256"
        }
      ],
      "name": "approve",
      "outputs": [],
      "stateMutability": "nonpayable",
      "type": "function"
    },
    {
      "inputs": [
        {
          "internalType": "address",
          "name": "owner",
          "type": "address"
        }
      ],
      "name": "balanceOf",
      "outputs": [
        {
          "internalType": "uint256",
          "name": "",
          "type": "uint256"
        }
      ],
      "stateMutability": "view",
      "type": "function"
    },
    {
      "inputs": [],
      "name": "characterIndex",
      "outputs": [
        {
          "internalType": "uint256",
          "name": "",
          "type": "uint256"
        }
      ],
      "stateMutability": "view",
      "type": "function"
    },
    {
      "inputs": [],
      "name": "checkIfUserHasNFT",
      "outputs": [
        {
          "components": [
            {
              "internalType": "uint256",
              "name": "characterIndex",
              "type": "uint256"
            },
            {
              "internalType": "string",
              "name": "name",
              "type": "string"
            },
            {
              "internalType": "string",
              "name": "imageURI",
              "type": "string"
            }
          ],
          "internalType": "struct NFTOx.CharacterAttributes",
          "name": "",
          "type": "tuple"
        }
      ],
      "stateMutability": "view",
      "type": "function"
    },
    {
      "inputs": [],
      "name": "getAllDefaultCharacters",
      "outputs": [
        {
          "components": [
            {
              "internalType": "uint256",
              "name": "characterIndex",
              "type": "uint256"
            },
            {
              "internalType": "string",
              "name": "name",
              "type": "string"
            },
            {
              "internalType": "string",
              "name": "imageURI",
              "type": "string"
            }
          ],
          "internalType": "struct NFTOx.CharacterAttributes[]",
          "name": "",
          "type": "tuple[]"
        }
      ],
      "stateMutability": "view",
      "type": "function"
    },
    {
      "inputs": [
        {
          "internalType": "uint256",
          "name": "tokenId",
          "type": "uint256"
        }
      ],
      "name": "getApproved",
      "outputs": [
        {
          "internalType": "address",
          "name": "",
          "type": "address"
        }
      ],
      "stateMutability": "view",
      "type": "function"
    },
    {
      "inputs": [
        {
          "internalType": "address",
          "name": "owner",
          "type": "address"
        },
        {
          "internalType": "address",
          "name": "operator",
          "type": "address"
        }
      ],
      "name": "isApprovedForAll",
      "outputs": [
        {
          "internalType": "bool",
          "name": "",
          "type": "bool"
        }
      ],
      "stateMutability": "view",
      "type": "function"
    },
    {
      "inputs": [
        {
          "internalType": "uint256",
          "name": "_characterIndex",
          "type": "uint256"
        }
      ],
      "name": "mintCharacterNFT",
      "outputs": [],
      "stateMutability": "nonpayable",
      "type": "function"
    },
    {
      "inputs": [],
      "name": "name",
      "outputs": [
        {
          "internalType": "string",
          "name": "",
          "type": "string"
        }
      ],
      "stateMutability": "view",
      "type": "function"
    },
    {
      "inputs": [
        {
          "internalType": "uint256",
          "name": "",
          "type": "uint256"
        }
      ],
      "name": "nftHolderAttributes",
      "outputs": [
        {
          "internalType": "uint256",
          "name": "characterIndex",
          "type": "uint256"
        },
        {
          "internalType": "string",
          "name": "name",
          "type": "string"
        },
        {
          "internalType": "string",
          "name": "imageURI",
          "type": "string"
        }
      ],
      "stateMutability": "view",
      "type": "function"
    },
    {
      "inputs": [
        {
          "internalType": "address",
          "name": "",
          "type": "address"
        }
      ],
      "name": "nftHolders",
      "outputs": [
        {
          "internalType": "uint256",
          "name": "",
          "type": "uint256"
        }
      ],
      "stateMutability": "view",
      "type": "function"
    },
    {
      "inputs": [
        {
          "internalType": "uint256",
          "name": "tokenId",
          "type": "uint256"
        }
      ],
      "name": "ownerOf",
      "outputs": [
        {
          "internalType": "address",
          "name": "",
          "type": "address"
        }
      ],
      "stateMutability": "view",
      "type": "function"
    },
    {
      "inputs": [
        {
          "internalType": "address",
          "name": "from",
          "type": "address"
        },
        {
          "internalType": "address",
          "name": "to",
          "type": "address"
        },
        {
          "internalType": "uint256",
          "name": "tokenId",
          "type": "uint256"
        }
      ],
      "name": "safeTransferFrom",
      "outputs": [],
      "stateMutability": "nonpayable",
      "type": "function"
    },
    {
      "inputs": [
        {
          "internalType": "address",
          "name": "from",
          "type": "address"
        },
        {
          "internalType": "address",
          "name": "to",
          "type": "address"
        },
        {
          "internalType": "uint256",
          "name": "tokenId",
          "type": "uint256"
        },
        {
          "internalType": "bytes",
          "name": "_data",
          "type": "bytes"
        }
      ],
      "name": "safeTransferFrom",
      "outputs": [],
      "stateMutability": "nonpayable",
      "type": "function"
    },
    {
      "inputs": [
        {
          "internalType": "address",
          "name": "operator",
          "type": "address"
        },
        {
          "internalType": "bool",
          "name": "approved",
          "type": "bool"
        }
      ],
      "name": "setApprovalForAll",
      "outputs": [],
      "stateMutability": "nonpayable",
      "type": "function"
    },
    {
      "inputs": [
        {
          "internalType": "string",
          "name": "characterNames",
          "type": "string"
        },
        {
          "internalType": "string",
          "name": "characterImageURIs",
          "type": "string"
        }
      ],
      "name": "setCharacters",
      "outputs": [],
      "stateMutability": "nonpayable",
      "type": "function"
    },
    {
      "inputs": [
        {
          "internalType": "bytes4",
          "name": "interfaceId",
          "type": "bytes4"
        }
      ],
      "name": "supportsInterface",
      "outputs": [
        {
          "internalType": "bool",
          "name": "",
          "type": "bool"
        }
      ],
      "stateMutability": "view",
      "type": "function"
    },
    {
      "inputs": [],
      "name": "symbol",
      "outputs": [
        {
          "internalType": "string",
          "name": "",
          "type": "string"
        }
      ],
      "stateMutability": "view",
      "type": "function"
    },
    {
      "inputs": [
        {
          "internalType": "uint256",
          "name": "_tokenId",
          "type": "uint256"
        }
      ],
      "name": "tokenURI",
      "outputs": [
        {
          "internalType": "string",
          "name": "",
          "type": "string"
        }
      ],
      "stateMutability": "view",
      "type": "function"
    },
    {
      "inputs": [
        {
          "internalType": "address",
          "name": "from",
          "type": "address"
        },
        {
          "internalType": "address",
          "name": "to",
          "type": "address"
        },
        {
          "internalType": "uint256",
          "name": "tokenId",
          "type": "uint256"
        }
      ],
      "name": "transferFrom",
      "outputs": [],
      "stateMutability": "nonpayable",
      "type": "function"
    }
  ],
  "bytecode": "0x60806040523480156200001157600080fd5b506040518060400160405280601181526020017f546865204f7820636f6c6c656374696f6e0000000000000000000000000000008152506040518060400160405280600381526020017f4f58430000000000000000000000000000000000000000000000000000000000815250816000908051906020019062000096929190620000e5565b508060019080519060200190620000af929190620000e5565b505050620000c96006620000cf60201b620018021760201c565b620001fa565b6001816000016000828254019250508190555050565b828054620000f39062000195565b90600052602060002090601f01602090048101928262000117576000855562000163565b82601f106200013257805160ff191683800117855562000163565b8280016001018555821562000163579182015b828111156200016257825182559160200191906001019062000145565b5b50905062000172919062000176565b5090565b5b808211156200019157600081600090555060010162000177565b5090565b60006002820490506001821680620001ae57607f821691505b60208210811415620001c557620001c4620001cb565b5b50919050565b7f4e487b7100000000000000000000000000000000000000000000000000000000600052602260045260246000fd5b6140d4806200020a6000396000f3fe608060405234801561001057600080fd5b506004361061012c5760003560e01c80637df124a1116100ad578063b953084e11610071578063b953084e14610355578063c87b56dd14610373578063c8cf27f4146103a3578063e985e9c5146103c1578063f8b81ef7146103f15761012c565b80637df124a11461029d57806395d89b41146102cd57806398da4c95146102eb578063a22cb4651461031d578063b88d4fde146103395761012c565b80633677c095116100f45780633677c095146101e757806342842e0e146102035780636352211e1461021f57806370a082311461024f57806371f0bbdf1461027f5761012c565b806301ffc9a71461013157806306fdde0314610161578063081812fc1461017f578063095ea7b3146101af57806323b872dd146101cb575b600080fd5b61014b60048036038101906101469190612bf4565b61040d565b604051610158919061330d565b60405180910390f35b6101696104ef565b6040516101769190613328565b60405180910390f35b61019960048036038101906101949190612cb2565b610581565b6040516101a6919061324d565b60405180910390f35b6101c960048036038101906101c49190612bb8565b610606565b005b6101e560048036038101906101e09190612ab2565b61071e565b005b61020160048036038101906101fc9190612c46565b61077e565b005b61021d60048036038101906102189190612ab2565b6109dd565b005b61023960048036038101906102349190612cb2565b6109fd565b604051610246919061324d565b60405180910390f35b61026960048036038101906102649190612a4d565b610aaf565b60405161027691906135cd565b60405180910390f35b610287610b67565b60405161029491906135cd565b60405180910390f35b6102b760048036038101906102b29190612a4d565b610b6d565b6040516102c491906135cd565b60405180910390f35b6102d5610b85565b6040516102e29190613328565b60405180910390f35b61030560048036038101906103009190612cb2565b610c17565b604051610314939291906135e8565b60405180910390f35b61033760048036038101906103329190612b7c565b610d51565b005b610353600480360381019061034e9190612b01565b610d67565b005b61035d610dc9565b60405161036a91906132eb565b60405180910390f35b61038d60048036038101906103889190612cb2565b610f56565b60405161039a9190613328565b60405180910390f35b6103ab6111f4565b6040516103b891906135ab565b60405180910390f35b6103db60048036038101906103d69190612a76565b6113ae565b6040516103e8919061330d565b60405180910390f35b61040b60048036038101906104069190612cb2565b611442565b005b60007f80ac58cd000000000000000000000000000000000000000000000000000000007bffffffffffffffffffffffffffffffffffffffffffffffffffffffff1916827bffffffffffffffffffffffffffffffffffffffffffffffffffffffff191614806104d857507f5b5e139f000000000000000000000000000000000000000000000000000000007bffffffffffffffffffffffffffffffffffffffffffffffffffffffff1916827bffffffffffffffffffffffffffffffffffffffffffffffffffffffff1916145b806104e857506104e782611818565b5b9050919050565b6060600080546104fe9061390c565b80601f016020809104026020016040519081016040528092919081815260200182805461052a9061390c565b80156105775780601f1061054c57610100808354040283529160200191610577565b820191906000526020600020905b81548152906001019060200180831161055a57829003601f168201915b5050505050905090565b600061058c82611882565b6105cb576040517f08c379a00000000000000000000000000000000000000000000000000000000081526004016105c29061354b565b60405180910390fd5b6004600083815260200190815260200160002060009054906101000a900473ffffffffffffffffffffffffffffffffffffffff169050919050565b6000610611826109fd565b90508073ffffffffffffffffffffffffffffffffffffffff168373ffffffffffffffffffffffffffffffffffffffff161415610682576040517f08c379a00000000000000000000000000000000000000000000000000000000081526004016106799061356b565b60405180910390fd5b8073ffffffffffffffffffffffffffffffffffffffff166106a16118ee565b73ffffffffffffffffffffffffffffffffffffffff1614806106d057506106cf816106ca6118ee565b6113ae565b5b61070f576040517f08c379a0000000000000000000000000000000000000000000000000000000008152600401610706906134cb565b60405180910390fd5b61071983836118f6565b505050565b61072f6107296118ee565b826119af565b61076e576040517f08c379a00000000000000000000000000000000000000000000000000000000081526004016107659061358b565b60405180910390fd5b610779838383611a8d565b505050565b60076040518060600160405280600a5481526020018481526020018381525090806001815401808255809150506001900390600052602060002090600302016000909190919091506000820151816000015560208201518160010190805190602001906107ec929190612850565b506040820151816002019080519060200190610809929190612850565b50505060006007600a548154811061084a577f4e487b7100000000000000000000000000000000000000000000000000000000600052603260045260246000fd5b90600052602060002090600302016040518060600160405290816000820154815260200160018201805461087d9061390c565b80601f01602080910402602001604051908101604052809291908181526020018280546108a99061390c565b80156108f65780601f106108cb576101008083540402835291602001916108f6565b820191906000526020600020905b8154815290600101906020018083116108d957829003601f168201915b5050505050815260200160028201805461090f9061390c565b80601f016020809104026020016040519081016040528092919081815260200182805461093b9061390c565b80156109885780601f1061095d57610100808354040283529160200191610988565b820191906000526020600020905b81548152906001019060200180831161096b57829003601f168201915b50505050508152505090506109be60405180606001604052806025815260200161400c6025913982602001518360400151611cf4565b6001600a60008282546109d19190613741565b92505081905550505050565b6109f883838360405180602001604052806000815250610d67565b505050565b6000806002600084815260200190815260200160002060009054906101000a900473ffffffffffffffffffffffffffffffffffffffff169050600073ffffffffffffffffffffffffffffffffffffffff168173ffffffffffffffffffffffffffffffffffffffff161415610aa6576040517f08c379a0000000000000000000000000000000000000000000000000000000008152600401610a9d9061350b565b60405180910390fd5b80915050919050565b60008073ffffffffffffffffffffffffffffffffffffffff168273ffffffffffffffffffffffffffffffffffffffff161415610b20576040517f08c379a0000000000000000000000000000000000000000000000000000000008152600401610b17906134eb565b60405180910390fd5b600360008373ffffffffffffffffffffffffffffffffffffffff1673ffffffffffffffffffffffffffffffffffffffff168152602001908152602001600020549050919050565b600a5481565b60096020528060005260406000206000915090505481565b606060018054610b949061390c565b80601f0160208091040260200160405190810160405280929190818152602001828054610bc09061390c565b8015610c0d5780601f10610be257610100808354040283529160200191610c0d565b820191906000526020600020905b815481529060010190602001808311610bf057829003601f168201915b5050505050905090565b6008602052806000526040600020600091509050806000015490806001018054610c409061390c565b80601f0160208091040260200160405190810160405280929190818152602001828054610c6c9061390c565b8015610cb95780601f10610c8e57610100808354040283529160200191610cb9565b820191906000526020600020905b815481529060010190602001808311610c9c57829003601f168201915b505050505090806002018054610cce9061390c565b80601f0160208091040260200160405190810160405280929190818152602001828054610cfa9061390c565b8015610d475780601f10610d1c57610100808354040283529160200191610d47565b820191906000526020600020905b815481529060010190602001808311610d2a57829003601f168201915b5050505050905083565b610d63610d5c6118ee565b8383611d93565b5050565b610d78610d726118ee565b836119af565b610db7576040517f08c379a0000000000000000000000000000000000000000000000000000000008152600401610dae9061358b565b60405180910390fd5b610dc384848484611f00565b50505050565b60606007805480602002602001604051908101604052809291908181526020016000905b82821015610f4d578382906000526020600020906003020160405180606001604052908160008201548152602001600182018054610e2a9061390c565b80601f0160208091040260200160405190810160405280929190818152602001828054610e569061390c565b8015610ea35780601f10610e7857610100808354040283529160200191610ea3565b820191906000526020600020905b815481529060010190602001808311610e8657829003601f168201915b50505050508152602001600282018054610ebc9061390c565b80601f0160208091040260200160405190810160405280929190818152602001828054610ee89061390c565b8015610f355780601f10610f0a57610100808354040283529160200191610f35565b820191906000526020600020905b815481529060010190602001808311610f1857829003601f168201915b50505050508152505081526020019060010190610ded565b50505050905090565b606060006008600084815260200190815260200160002060405180606001604052908160008201548152602001600182018054610f929061390c565b80601f0160208091040260200160405190810160405280929190818152602001828054610fbe9061390c565b801561100b5780601f10610fe05761010080835404028352916020019161100b565b820191906000526020600020905b815481529060010190602001808311610fee57829003601f168201915b505050505081526020016002820180546110249061390c565b80601f01602080910402602001604051908101604052809291908181526020018280546110509061390c565b801561109d5780601f106110725761010080835404028352916020019161109d565b820191906000526020600020905b81548152906001019060200180831161108057829003601f168201915b50505050508152505090506111856040518060400160405280601081526020017f63686172417472696275746573202573000000000000000000000000000000008152506008600086815260200190815260200160002060010180546111029061390c565b80601f016020809104026020016040519081016040528092919081815260200182805461112e9061390c565b801561117b5780601f106111505761010080835404028352916020019161117b565b820191906000526020600020905b81548152906001019060200180831161115e57829003601f168201915b5050505050611f5c565b60006111c3826020015161119886611ff8565b84604001516040516020016111af939291906131c3565b6040516020818303038152906040526121a5565b90506000816040516020016111d8919061322b565b6040516020818303038152906040529050809350505050919050565b6111fc6128d6565b6000600960003373ffffffffffffffffffffffffffffffffffffffff1673ffffffffffffffffffffffffffffffffffffffff168152602001908152602001600020549050600081111561139d5760086000828152602001908152602001600020604051806060016040529081600082015481526020016001820180546112819061390c565b80601f01602080910402602001604051908101604052809291908181526020018280546112ad9061390c565b80156112fa5780601f106112cf576101008083540402835291602001916112fa565b820191906000526020600020905b8154815290600101906020018083116112dd57829003601f168201915b505050505081526020016002820180546113139061390c565b80601f016020809104026020016040519081016040528092919081815260200182805461133f9061390c565b801561138c5780601f106113615761010080835404028352916020019161138c565b820191906000526020600020905b81548152906001019060200180831161136f57829003601f168201915b5050505050815250509150506113ab565b6113a56128d6565b80925050505b90565b6000600560008473ffffffffffffffffffffffffffffffffffffffff1673ffffffffffffffffffffffffffffffffffffffff16815260200190815260200160002060008373ffffffffffffffffffffffffffffffffffffffff1673ffffffffffffffffffffffffffffffffffffffff16815260200190815260200160002060009054906101000a900460ff16905092915050565b600061144e6006612363565b905061145a3382612371565b6040518060600160405280838152602001600784815481106114a5577f4e487b7100000000000000000000000000000000000000000000000000000000600052603260045260246000fd5b906000526020600020906003020160010180546114c19061390c565b80601f01602080910402602001604051908101604052809291908181526020018280546114ed9061390c565b801561153a5780601f1061150f5761010080835404028352916020019161153a565b820191906000526020600020905b81548152906001019060200180831161151d57829003601f168201915b505050505081526020016007848154811061157e577f4e487b7100000000000000000000000000000000000000000000000000000000600052603260045260246000fd5b9060005260206000209060030201600201805461159a9061390c565b80601f01602080910402602001604051908101604052809291908181526020018280546115c69061390c565b80156116135780601f106115e857610100808354040283529160200191611613565b820191906000526020600020905b8154815290600101906020018083116115f657829003601f168201915b505050505081525060086000838152602001908152602001600020600082015181600001556020820151816001019080519060200190611654929190612850565b506040820151816002019080519060200190611671929190612850565b509050506116986040518060600160405280602e8152602001614071602e9139828461238f565b6117756040518060400160405280601b81526020017f61747269627574657320636861726163746572496e64657820257300000000008152506008600084815260200190815260200160002060010180546116f29061390c565b80601f016020809104026020016040519081016040528092919081815260200182805461171e9061390c565b801561176b5780601f106117405761010080835404028352916020019161176b565b820191906000526020600020905b81548152906001019060200180831161174e57829003601f168201915b5050505050611f5c565b80600960003373ffffffffffffffffffffffffffffffffffffffff1673ffffffffffffffffffffffffffffffffffffffff168152602001908152602001600020819055506117c36006611802565b7f4bc303fd457a97b4691b9af582ce71868a3d258638c8d4f8c60988a0f0bfb8cd3382846040516117f6939291906132b4565b60405180910390a15050565b6001816000016000828254019250508190555050565b60007f01ffc9a7000000000000000000000000000000000000000000000000000000007bffffffffffffffffffffffffffffffffffffffffffffffffffffffff1916827bffffffffffffffffffffffffffffffffffffffffffffffffffffffff1916149050919050565b60008073ffffffffffffffffffffffffffffffffffffffff166002600084815260200190815260200160002060009054906101000a900473ffffffffffffffffffffffffffffffffffffffff1673ffffffffffffffffffffffffffffffffffffffff1614159050919050565b600033905090565b816004600083815260200190815260200160002060006101000a81548173ffffffffffffffffffffffffffffffffffffffff021916908373ffffffffffffffffffffffffffffffffffffffff160217905550808273ffffffffffffffffffffffffffffffffffffffff16611969836109fd565b73ffffffffffffffffffffffffffffffffffffffff167f8c5be1e5ebec7d5bd14f71427d1e84f3dd0314c0f7b2291e5b200ac8c7c3b92560405160405180910390a45050565b60006119ba82611882565b6119f9576040517f08c379a00000000000000000000000000000000000000000000000000000000081526004016119f0906134ab565b60405180910390fd5b6000611a04836109fd565b90508073ffffffffffffffffffffffffffffffffffffffff168473ffffffffffffffffffffffffffffffffffffffff161480611a7357508373ffffffffffffffffffffffffffffffffffffffff16611a5b84610581565b73ffffffffffffffffffffffffffffffffffffffff16145b80611a845750611a8381856113ae565b5b91505092915050565b8273ffffffffffffffffffffffffffffffffffffffff16611aad826109fd565b73ffffffffffffffffffffffffffffffffffffffff1614611b03576040517f08c379a0000000000000000000000000000000000000000000000000000000008152600401611afa9061342b565b60405180910390fd5b600073ffffffffffffffffffffffffffffffffffffffff168273ffffffffffffffffffffffffffffffffffffffff161415611b73576040517f08c379a0000000000000000000000000000000000000000000000000000000008152600401611b6a9061346b565b60405180910390fd5b611b7e83838361242e565b611b896000826118f6565b6001600360008573ffffffffffffffffffffffffffffffffffffffff1673ffffffffffffffffffffffffffffffffffffffff1681526020019081526020016000206000828254611bd99190613822565b925050819055506001600360008473ffffffffffffffffffffffffffffffffffffffff1673ffffffffffffffffffffffffffffffffffffffff1681526020019081526020016000206000828254611c309190613741565b92505081905550816002600083815260200190815260200160002060006101000a81548173ffffffffffffffffffffffffffffffffffffffff021916908373ffffffffffffffffffffffffffffffffffffffff160217905550808273ffffffffffffffffffffffffffffffffffffffff168473ffffffffffffffffffffffffffffffffffffffff167fddf252ad1be2c89b69c2b068fc378daa952ba7f163c4a11628f55a4df523b3ef60405160405180910390a4611cef838383612433565b505050565b611d8e838383604051602401611d0c93929190613381565b6040516020818303038152906040527f2ced7cef000000000000000000000000000000000000000000000000000000007bffffffffffffffffffffffffffffffffffffffffffffffffffffffff19166020820180517bffffffffffffffffffffffffffffffffffffffffffffffffffffffff8381831617835250505050612438565b505050565b8173ffffffffffffffffffffffffffffffffffffffff168373ffffffffffffffffffffffffffffffffffffffff161415611e02576040517f08c379a0000000000000000000000000000000000000000000000000000000008152600401611df99061348b565b60405180910390fd5b80600560008573ffffffffffffffffffffffffffffffffffffffff1673ffffffffffffffffffffffffffffffffffffffff16815260200190815260200160002060008473ffffffffffffffffffffffffffffffffffffffff1673ffffffffffffffffffffffffffffffffffffffff16815260200190815260200160002060006101000a81548160ff0219169083151502179055508173ffffffffffffffffffffffffffffffffffffffff168373ffffffffffffffffffffffffffffffffffffffff167f17307eab39ab6107e8899845ad3d59bd9653f200f220920489ca2b5937696c3183604051611ef3919061330d565b60405180910390a3505050565b611f0b848484611a8d565b611f1784848484612461565b611f56576040517f08c379a0000000000000000000000000000000000000000000000000000000008152600401611f4d9061340b565b60405180910390fd5b50505050565b611ff48282604051602401611f7292919061334a565b6040516020818303038152906040527f4b5c4277000000000000000000000000000000000000000000000000000000007bffffffffffffffffffffffffffffffffffffffffffffffffffffffff19166020820180517bffffffffffffffffffffffffffffffffffffffffffffffffffffffff8381831617835250505050612438565b5050565b60606000821415612040576040518060400160405280600181526020017f300000000000000000000000000000000000000000000000000000000000000081525090506121a0565b600082905060005b6000821461207257808061205b9061396f565b915050600a8261206b9190613797565b9150612048565b60008167ffffffffffffffff8111156120b4577f4e487b7100000000000000000000000000000000000000000000000000000000600052604160045260246000fd5b6040519080825280601f01601f1916602001820160405280156120e65781602001600182028036833780820191505090505b5090505b60008514612199576001826120ff9190613822565b9150600a8561210e91906139b8565b603061211a9190613741565b60f81b818381518110612156577f4e487b7100000000000000000000000000000000000000000000000000000000600052603260045260246000fd5b60200101907effffffffffffffffffffffffffffffffffffffffffffffffffffffffffffff1916908160001a905350600a856121929190613797565b94506120ea565b8093505050505b919050565b606060008251905060008114156121ce576040518060200160405280600081525091505061235e565b600060036002836121df9190613741565b6121e99190613797565b60046121f591906137c8565b905060006020826122069190613741565b67ffffffffffffffff811115612245577f4e487b7100000000000000000000000000000000000000000000000000000000600052604160045260246000fd5b6040519080825280601f01601f1916602001820160405280156122775781602001600182028036833780820191505090505b5090506000604051806060016040528060408152602001614031604091399050600181016020830160005b8681101561231b5760038101905062ffffff818a015116603f8160121c168401518060081b905060ff603f83600c1c1686015116810190508060081b905060ff603f8360061c1686015116810190508060081b905060ff603f831686015116810190508060e01b905080845260048401935050506122a2565b506003860660018114612335576002811461234557612350565b613d3d60f01b6002830352612350565b603d60f81b60018303525b508484525050819450505050505b919050565b600081600001549050919050565b61238b8282604051806020016040528060008152506125f8565b5050565b6124298383836040516024016123a7939291906133cd565b6040516020818303038152906040527f969cdd03000000000000000000000000000000000000000000000000000000007bffffffffffffffffffffffffffffffffffffffffffffffffffffffff19166020820180517bffffffffffffffffffffffffffffffffffffffffffffffffffffffff8381831617835250505050612438565b505050565b505050565b505050565b60008151905060006a636f6e736f6c652e6c6f679050602083016000808483855afa5050505050565b60006124828473ffffffffffffffffffffffffffffffffffffffff16612653565b156125eb578373ffffffffffffffffffffffffffffffffffffffff1663150b7a026124ab6118ee565b8786866040518563ffffffff1660e01b81526004016124cd9493929190613268565b602060405180830381600087803b1580156124e757600080fd5b505af192505050801561251857506040513d601f19601f820116820180604052508101906125159190612c1d565b60015b61259b573d8060008114612548576040519150601f19603f3d011682016040523d82523d6000602084013e61254d565b606091505b50600081511415612593576040517f08c379a000000000000000000000000000000000000000000000000000000000815260040161258a9061340b565b60405180910390fd5b805181602001fd5b63150b7a0260e01b7bffffffffffffffffffffffffffffffffffffffffffffffffffffffff1916817bffffffffffffffffffffffffffffffffffffffffffffffffffffffff1916149150506125f0565b600190505b949350505050565b6126028383612676565b61260f6000848484612461565b61264e576040517f08c379a00000000000000000000000000000000000000000000000000000000081526004016126459061340b565b60405180910390fd5b505050565b6000808273ffffffffffffffffffffffffffffffffffffffff163b119050919050565b600073ffffffffffffffffffffffffffffffffffffffff168273ffffffffffffffffffffffffffffffffffffffff1614156126e6576040517f08c379a00000000000000000000000000000000000000000000000000000000081526004016126dd9061352b565b60405180910390fd5b6126ef81611882565b1561272f576040517f08c379a00000000000000000000000000000000000000000000000000000000081526004016127269061344b565b60405180910390fd5b61273b6000838361242e565b6001600360008473ffffffffffffffffffffffffffffffffffffffff1673ffffffffffffffffffffffffffffffffffffffff168152602001908152602001600020600082825461278b9190613741565b92505081905550816002600083815260200190815260200160002060006101000a81548173ffffffffffffffffffffffffffffffffffffffff021916908373ffffffffffffffffffffffffffffffffffffffff160217905550808273ffffffffffffffffffffffffffffffffffffffff16600073ffffffffffffffffffffffffffffffffffffffff167fddf252ad1be2c89b69c2b068fc378daa952ba7f163c4a11628f55a4df523b3ef60405160405180910390a461284c60008383612433565b5050565b82805461285c9061390c565b90600052602060002090601f01602090048101928261287e57600085556128c5565b82601f1061289757805160ff19168380011785556128c5565b828001600101855582156128c5579182015b828111156128c45782518255916020019190600101906128a9565b5b5090506128d291906128f7565b5090565b60405180606001604052806000815260200160608152602001606081525090565b5b808211156129105760008160009055506001016128f8565b5090565b600061292761292284613652565b61362d565b90508281526020810184848401111561293f57600080fd5b61294a8482856138ca565b509392505050565b600061296561296084613683565b61362d565b90508281526020810184848401111561297d57600080fd5b6129888482856138ca565b509392505050565b60008135905061299f81613faf565b92915050565b6000813590506129b481613fc6565b92915050565b6000813590506129c981613fdd565b92915050565b6000815190506129de81613fdd565b92915050565b600082601f8301126129f557600080fd5b8135612a05848260208601612914565b91505092915050565b600082601f830112612a1f57600080fd5b8135612a2f848260208601612952565b91505092915050565b600081359050612a4781613ff4565b92915050565b600060208284031215612a5f57600080fd5b6000612a6d84828501612990565b91505092915050565b60008060408385031215612a8957600080fd5b6000612a9785828601612990565b9250506020612aa885828601612990565b9150509250929050565b600080600060608486031215612ac757600080fd5b6000612ad586828701612990565b9350506020612ae686828701612990565b9250506040612af786828701612a38565b9150509250925092565b60008060008060808587031215612b1757600080fd5b6000612b2587828801612990565b9450506020612b3687828801612990565b9350506040612b4787828801612a38565b925050606085013567ffffffffffffffff811115612b6457600080fd5b612b70878288016129e4565b91505092959194509250565b60008060408385031215612b8f57600080fd5b6000612b9d85828601612990565b9250506020612bae858286016129a5565b9150509250929050565b60008060408385031215612bcb57600080fd5b6000612bd985828601612990565b9250506020612bea85828601612a38565b9150509250929050565b600060208284031215612c0657600080fd5b6000612c14848285016129ba565b91505092915050565b600060208284031215612c2f57600080fd5b6000612c3d848285016129cf565b91505092915050565b60008060408385031215612c5957600080fd5b600083013567ffffffffffffffff811115612c7357600080fd5b612c7f85828601612a0e565b925050602083013567ffffffffffffffff811115612c9c57600080fd5b612ca885828601612a0e565b9150509250929050565b600060208284031215612cc457600080fd5b6000612cd284828501612a38565b91505092915050565b6000612ce783836130f7565b905092915050565b612cf881613856565b82525050565b6000612d09826136c4565b612d1381856136f2565b935083602082028501612d25856136b4565b8060005b85811015612d615784840389528151612d428582612cdb565b9450612d4d836136e5565b925060208a01995050600181019050612d29565b50829750879550505050505092915050565b612d7c81613868565b82525050565b6000612d8d826136cf565b612d978185613703565b9350612da78185602086016138d9565b612db081613aa5565b840191505092915050565b6000612dc6826136da565b612dd08185613714565b9350612de08185602086016138d9565b612de981613aa5565b840191505092915050565b6000612dff826136da565b612e098185613725565b9350612e198185602086016138d9565b612e2281613aa5565b840191505092915050565b6000612e38826136da565b612e428185613736565b9350612e528185602086016138d9565b80840191505092915050565b6000612e6b600b83613736565b9150612e7682613ab6565b600b82019050919050565b6000612e8e603283613725565b9150612e9982613adf565b604082019050919050565b6000612eb1602583613725565b9150612ebc82613b2e565b604082019050919050565b6000612ed4601c83613725565b9150612edf82613b7d565b602082019050919050565b6000612ef7602483613725565b9150612f0282613ba6565b604082019050919050565b6000612f1a601983613725565b9150612f2582613bf5565b602082019050919050565b6000612f3d602c83613725565b9150612f4882613c1e565b604082019050919050565b6000612f60603b83613736565b9150612f6b82613c6d565b603b82019050919050565b6000612f83603883613725565b9150612f8e82613cbc565b604082019050919050565b6000612fa6602a83613725565b9150612fb182613d0b565b604082019050919050565b6000612fc9602983613725565b9150612fd482613d5a565b604082019050919050565b6000612fec600483613736565b9150612ff782613da9565b600482019050919050565b600061300f602083613725565b915061301a82613dd2565b602082019050919050565b6000613032602c83613725565b915061303d82613dfb565b604082019050919050565b6000613055600a83613736565b915061306082613e4a565b600a82019050919050565b6000613078602183613725565b915061308382613e73565b604082019050919050565b600061309b601d83613736565b91506130a682613ec2565b601d82019050919050565b60006130be604683613736565b91506130c982613eeb565b604682019050919050565b60006130e1603183613725565b91506130ec82613f60565b604082019050919050565b600060608301600083015161310f60008601826131a5565b50602083015184820360208601526131278282612dbb565b915050604083015184820360408601526131418282612dbb565b9150508091505092915050565b600060608301600083015161316660008601826131a5565b506020830151848203602086015261317e8282612dbb565b915050604083015184820360408601526131988282612dbb565b9150508091505092915050565b6131ae816138c0565b82525050565b6131bd816138c0565b82525050565b60006131ce82613048565b91506131da8286612e2d565b91506131e582612e5e565b91506131f18285612e2d565b91506131fc826130b1565b91506132088284612e2d565b915061321382612f53565b915061321e82612fdf565b9150819050949350505050565b60006132368261308e565b91506132428284612e2d565b915081905092915050565b60006020820190506132626000830184612cef565b92915050565b600060808201905061327d6000830187612cef565b61328a6020830186612cef565b61329760408301856131b4565b81810360608301526132a98184612d82565b905095945050505050565b60006060820190506132c96000830186612cef565b6132d660208301856131b4565b6132e360408301846131b4565b949350505050565b600060208201905081810360008301526133058184612cfe565b905092915050565b60006020820190506133226000830184612d73565b92915050565b600060208201905081810360008301526133428184612df4565b905092915050565b600060408201905081810360008301526133648185612df4565b905081810360208301526133788184612df4565b90509392505050565b6000606082019050818103600083015261339b8186612df4565b905081810360208301526133af8185612df4565b905081810360408301526133c38184612df4565b9050949350505050565b600060608201905081810360008301526133e78186612df4565b90506133f660208301856131b4565b61340360408301846131b4565b949350505050565b6000602082019050818103600083015261342481612e81565b9050919050565b6000602082019050818103600083015261344481612ea4565b9050919050565b6000602082019050818103600083015261346481612ec7565b9050919050565b6000602082019050818103600083015261348481612eea565b9050919050565b600060208201905081810360008301526134a481612f0d565b9050919050565b600060208201905081810360008301526134c481612f30565b9050919050565b600060208201905081810360008301526134e481612f76565b9050919050565b6000602082019050818103600083015261350481612f99565b9050919050565b6000602082019050818103600083015261352481612fbc565b9050919050565b6000602082019050818103600083015261354481613002565b9050919050565b6000602082019050818103600083015261356481613025565b9050919050565b600060208201905081810360008301526135848161306b565b9050919050565b600060208201905081810360008301526135a4816130d4565b9050919050565b600060208201905081810360008301526135c5818461314e565b905092915050565b60006020820190506135e260008301846131b4565b92915050565b60006060820190506135fd60008301866131b4565b818103602083015261360f8185612df4565b905081810360408301526136238184612df4565b9050949350505050565b6000613637613648565b9050613643828261393e565b919050565b6000604051905090565b600067ffffffffffffffff82111561366d5761366c613a76565b5b61367682613aa5565b9050602081019050919050565b600067ffffffffffffffff82111561369e5761369d613a76565b5b6136a782613aa5565b9050602081019050919050565b6000819050602082019050919050565b600081519050919050565b600081519050919050565b600081519050919050565b6000602082019050919050565b600082825260208201905092915050565b600082825260208201905092915050565b600082825260208201905092915050565b600082825260208201905092915050565b600081905092915050565b600061374c826138c0565b9150613757836138c0565b9250827fffffffffffffffffffffffffffffffffffffffffffffffffffffffffffffffff0382111561378c5761378b6139e9565b5b828201905092915050565b60006137a2826138c0565b91506137ad836138c0565b9250826137bd576137bc613a18565b5b828204905092915050565b60006137d3826138c0565b91506137de836138c0565b9250817fffffffffffffffffffffffffffffffffffffffffffffffffffffffffffffffff0483118215151615613817576138166139e9565b5b828202905092915050565b600061382d826138c0565b9150613838836138c0565b92508282101561384b5761384a6139e9565b5b828203905092915050565b6000613861826138a0565b9050919050565b60008115159050919050565b60007fffffffff0000000000000000000000000000000000000000000000000000000082169050919050565b600073ffffffffffffffffffffffffffffffffffffffff82169050919050565b6000819050919050565b82818337600083830152505050565b60005b838110156138f75780820151818401526020810190506138dc565b83811115613906576000848401525b50505050565b6000600282049050600182168061392457607f821691505b6020821081141561393857613937613a47565b5b50919050565b61394782613aa5565b810181811067ffffffffffffffff8211171561396657613965613a76565b5b80604052505050565b600061397a826138c0565b91507fffffffffffffffffffffffffffffffffffffffffffffffffffffffffffffffff8214156139ad576139ac6139e9565b5b600182019050919050565b60006139c3826138c0565b91506139ce836138c0565b9250826139de576139dd613a18565b5b828206905092915050565b7f4e487b7100000000000000000000000000000000000000000000000000000000600052601160045260246000fd5b7f4e487b7100000000000000000000000000000000000000000000000000000000600052601260045260246000fd5b7f4e487b7100000000000000000000000000000000000000000000000000000000600052602260045260246000fd5b7f4e487b7100000000000000000000000000000000000000000000000000000000600052604160045260246000fd5b6000601f19601f8301169050919050565b7f202d2d204e465420233a20000000000000000000000000000000000000000000600082015250565b7f4552433732313a207472616e7366657220746f206e6f6e20455243373231526560008201527f63656976657220696d706c656d656e7465720000000000000000000000000000602082015250565b7f4552433732313a207472616e736665722066726f6d20696e636f72726563742060008201527f6f776e6572000000000000000000000000000000000000000000000000000000602082015250565b7f4552433732313a20746f6b656e20616c7265616479206d696e74656400000000600082015250565b7f4552433732313a207472616e7366657220746f20746865207a65726f2061646460008201527f7265737300000000000000000000000000000000000000000000000000000000602082015250565b7f4552433732313a20617070726f766520746f2063616c6c657200000000000000600082015250565b7f4552433732313a206f70657261746f7220717565727920666f72206e6f6e657860008201527f697374656e7420746f6b656e0000000000000000000000000000000000000000602082015250565b7f222c202261747472696275746573223a205b207b202274726169745f7479706560008201527f223a2022636f72222c202276616c7565223a226d6172726f6d22200000000000602082015250565b7f4552433732313a20617070726f76652063616c6c6572206973206e6f74206f7760008201527f6e6572206e6f7220617070726f76656420666f7220616c6c0000000000000000602082015250565b7f4552433732313a2062616c616e636520717565727920666f7220746865207a6560008201527f726f206164647265737300000000000000000000000000000000000000000000602082015250565b7f4552433732313a206f776e657220717565727920666f72206e6f6e657869737460008201527f656e7420746f6b656e0000000000000000000000000000000000000000000000602082015250565b7f7d205d7d00000000000000000000000000000000000000000000000000000000600082015250565b7f4552433732313a206d696e7420746f20746865207a65726f2061646472657373600082015250565b7f4552433732313a20617070726f76656420717565727920666f72206e6f6e657860008201527f697374656e7420746f6b656e0000000000000000000000000000000000000000602082015250565b7f7b226e616d65223a202200000000000000000000000000000000000000000000600082015250565b7f4552433732313a20617070726f76616c20746f2063757272656e74206f776e6560008201527f7200000000000000000000000000000000000000000000000000000000000000602082015250565b7f646174613a6170706c69636174696f6e2f6a736f6e3b6261736536342c000000600082015250565b7f222c20226465736372697074696f6e223a20225468697320697320616e204e4660008201527f5420546865204f7820636c756220636f6c6c656374696f6e21222c2022696d6160208201527f6765223a20220000000000000000000000000000000000000000000000000000604082015250565b7f4552433732313a207472616e736665722063616c6c6572206973206e6f74206f60008201527f776e6572206e6f7220617070726f766564000000000000000000000000000000602082015250565b613fb881613856565b8114613fc357600080fd5b50565b613fcf81613868565b8114613fda57600080fd5b50565b613fe681613874565b8114613ff157600080fd5b50565b613ffd816138c0565b811461400857600080fd5b5056fe446f6e6520696e697469616c697a696e6720257320772f2048502025732c20696d672025734142434445464748494a4b4c4d4e4f505152535455565758595a6162636465666768696a6b6c6d6e6f707172737475767778797a303132333435363738392b2f4d696e746564204e465420772f20746f6b656e496420257320616e6420636861726163746572496e646578202573a264697066735822122022d9f63980a4b550f413a09939a684f6bcc761a27186cf187a4d6bd8b628b26964736f6c63430008040033",
  "linkReferences": {},
  "deployedLinkReferences": {}
}